{
  "_format": "hh-sol-artifact-1",
  "contractName": "CampaignHandler",
  "sourceName": "contracts/CampaignHandler.sol",
  "abi": [
    {
      "inputs": [
        {
          "internalType": "address",
          "name": "_nft",
          "type": "address"
        }
      ],
      "stateMutability": "nonpayable",
      "type": "constructor"
    },
    {
      "inputs": [],
      "name": "CreatorHasNotMintedNFT",
      "type": "error"
    },
    {
      "anonymous": false,
      "inputs": [
        {
          "indexed": false,
          "internalType": "uint32",
          "name": "campaignID",
          "type": "uint32"
        },
        {
          "indexed": false,
          "internalType": "bool",
          "name": "isFunded",
          "type": "bool"
        }
      ],
      "name": "LogCloseCampaign",
      "type": "event"
    },
    {
      "anonymous": false,
      "inputs": [
        {
          "indexed": false,
          "internalType": "address",
          "name": "sender",
          "type": "address"
        },
        {
          "indexed": false,
          "internalType": "uint256",
          "name": "amount",
          "type": "uint256"
        },
        {
          "indexed": false,
          "internalType": "uint32",
          "name": "campaignID",
          "type": "uint32"
        }
      ],
      "name": "LogContribute",
      "type": "event"
    },
    {
      "anonymous": false,
      "inputs": [
        {
          "indexed": false,
          "internalType": "address",
          "name": "sender",
          "type": "address"
        },
        {
          "indexed": false,
          "internalType": "uint256",
          "name": "goal",
          "type": "uint256"
        }
      ],
      "name": "LogNewCampaign",
      "type": "event"
    },
    {
      "inputs": [
        {
          "internalType": "uint256",
          "name": "",
          "type": "uint256"
        }
      ],
      "name": "campaigns",
      "outputs": [
        {
          "internalType": "uint256",
          "name": "campaignId",
          "type": "uint256"
        },
        {
          "internalType": "bool",
          "name": "isActive",
          "type": "bool"
        },
        {
          "internalType": "bool",
          "name": "isFunded",
          "type": "bool"
        },
        {
          "internalType": "string",
          "name": "contentName",
          "type": "string"
        },
        {
          "internalType": "string",
          "name": "contentInfo",
          "type": "string"
        },
        {
          "internalType": "uint256",
          "name": "goal",
          "type": "uint256"
        },
        {
          "internalType": "uint256",
          "name": "total",
          "type": "uint256"
        },
        {
          "internalType": "uint256",
          "name": "startDate",
          "type": "uint256"
        },
        {
          "internalType": "address",
          "name": "creator",
          "type": "address"
        },
        {
          "internalType": "string",
          "name": "ipfsCID",
          "type": "string"
        },
        {
          "internalType": "uint256",
          "name": "tokenURI",
          "type": "uint256"
        }
      ],
      "stateMutability": "view",
      "type": "function"
    },
    {
      "inputs": [
        {
          "internalType": "uint32",
          "name": "campaignID",
          "type": "uint32"
        }
      ],
      "name": "checkProgress",
      "outputs": [
        {
          "internalType": "uint256",
          "name": "",
          "type": "uint256"
        },
        {
          "internalType": "uint256",
          "name": "",
          "type": "uint256"
        }
      ],
      "stateMutability": "view",
      "type": "function"
    },
    {
      "inputs": [
        {
          "internalType": "uint256",
          "name": "amount",
          "type": "uint256"
        },
        {
          "internalType": "uint32",
          "name": "campaignID",
          "type": "uint32"
        }
      ],
      "name": "contribute",
      "outputs": [],
      "stateMutability": "payable",
      "type": "function"
    },
    {
      "inputs": [
        {
          "internalType": "address",
          "name": "",
          "type": "address"
        },
        {
          "internalType": "uint256",
          "name": "",
          "type": "uint256"
        }
      ],
      "name": "creatorToCampaign",
      "outputs": [
        {
          "internalType": "uint256",
          "name": "campaignId",
          "type": "uint256"
        },
        {
          "internalType": "bool",
          "name": "isActive",
          "type": "bool"
        },
        {
          "internalType": "bool",
          "name": "isFunded",
          "type": "bool"
        },
        {
          "internalType": "string",
          "name": "contentName",
          "type": "string"
        },
        {
          "internalType": "string",
          "name": "contentInfo",
          "type": "string"
        },
        {
          "internalType": "uint256",
          "name": "goal",
          "type": "uint256"
        },
        {
          "internalType": "uint256",
          "name": "total",
          "type": "uint256"
        },
        {
          "internalType": "uint256",
          "name": "startDate",
          "type": "uint256"
        },
        {
          "internalType": "address",
          "name": "creator",
          "type": "address"
        },
        {
          "internalType": "string",
          "name": "ipfsCID",
          "type": "string"
        },
        {
          "internalType": "uint256",
          "name": "tokenURI",
          "type": "uint256"
        }
      ],
      "stateMutability": "view",
      "type": "function"
    },
    {
      "inputs": [],
      "name": "getCampaignCount",
      "outputs": [
        {
          "internalType": "uint256",
          "name": "",
          "type": "uint256"
        }
      ],
      "stateMutability": "view",
      "type": "function"
    },
    {
      "inputs": [
        {
          "internalType": "uint256",
          "name": "campaignID",
          "type": "uint256"
        }
      ],
      "name": "getCampaignIpfsCID",
      "outputs": [
        {
          "internalType": "string",
          "name": "",
          "type": "string"
        }
      ],
      "stateMutability": "view",
      "type": "function"
    },
    {
      "inputs": [],
      "name": "listActive",
      "outputs": [
        {
          "components": [
            {
              "internalType": "uint256",
              "name": "campaignId",
              "type": "uint256"
            },
            {
              "internalType": "bool",
              "name": "isActive",
              "type": "bool"
            },
            {
              "internalType": "bool",
              "name": "isFunded",
              "type": "bool"
            },
            {
              "internalType": "string",
              "name": "contentName",
              "type": "string"
            },
            {
              "internalType": "string",
              "name": "contentInfo",
              "type": "string"
            },
            {
              "internalType": "uint256",
              "name": "goal",
              "type": "uint256"
            },
            {
              "internalType": "uint256",
              "name": "total",
              "type": "uint256"
            },
            {
              "internalType": "uint256",
              "name": "startDate",
              "type": "uint256"
            },
            {
              "internalType": "address",
              "name": "creator",
              "type": "address"
            },
            {
              "internalType": "string",
              "name": "ipfsCID",
              "type": "string"
            },
            {
              "internalType": "uint256",
              "name": "tokenURI",
              "type": "uint256"
            }
          ],
          "internalType": "struct CampaignHandler.Campaign[]",
          "name": "",
          "type": "tuple[]"
        }
      ],
      "stateMutability": "view",
      "type": "function"
    },
    {
      "inputs": [
        {
          "internalType": "address",
          "name": "creator",
          "type": "address"
        }
      ],
      "name": "listCreatorCampaigns",
      "outputs": [
        {
          "components": [
            {
              "internalType": "uint256",
              "name": "campaignId",
              "type": "uint256"
            },
            {
              "internalType": "bool",
              "name": "isActive",
              "type": "bool"
            },
            {
              "internalType": "bool",
              "name": "isFunded",
              "type": "bool"
            },
            {
              "internalType": "string",
              "name": "contentName",
              "type": "string"
            },
            {
              "internalType": "string",
              "name": "contentInfo",
              "type": "string"
            },
            {
              "internalType": "uint256",
              "name": "goal",
              "type": "uint256"
            },
            {
              "internalType": "uint256",
              "name": "total",
              "type": "uint256"
            },
            {
              "internalType": "uint256",
              "name": "startDate",
              "type": "uint256"
            },
            {
              "internalType": "address",
              "name": "creator",
              "type": "address"
            },
            {
              "internalType": "string",
              "name": "ipfsCID",
              "type": "string"
            },
            {
              "internalType": "uint256",
              "name": "tokenURI",
              "type": "uint256"
            }
          ],
          "internalType": "struct CampaignHandler.Campaign[]",
          "name": "",
          "type": "tuple[]"
        }
      ],
      "stateMutability": "view",
      "type": "function"
    },
    {
      "inputs": [
        {
          "internalType": "string",
          "name": "ipfsCID",
          "type": "string"
        },
        {
          "internalType": "uint32",
          "name": "campaignId",
          "type": "uint32"
        }
      ],
      "name": "mintAndUpdate",
      "outputs": [],
      "stateMutability": "nonpayable",
      "type": "function"
    },
    {
      "inputs": [
        {
          "internalType": "uint256",
          "name": "_goal",
          "type": "uint256"
        },
        {
          "internalType": "string",
          "name": "_contentName",
          "type": "string"
        },
        {
          "internalType": "string",
          "name": "_contentInfo",
          "type": "string"
        },
        {
          "internalType": "string",
          "name": "_ipfsCID",
          "type": "string"
        }
      ],
      "name": "newCampaign",
      "outputs": [],
      "stateMutability": "nonpayable",
      "type": "function"
    },
    {
      "inputs": [
        {
          "internalType": "uint256",
          "name": "campaignId",
          "type": "uint256"
        }
      ],
      "name": "withdraw",
      "outputs": [],
      "stateMutability": "nonpayable",
      "type": "function"
    }
  ],
  "bytecode": "0x60806040523480156200001157600080fd5b506040516200327438038062003274833981810160405281019062000037919062000191565b620000666040518060600160405280602281526020016200325260229139620000ae60201b62001db41760201c565b80600160006101000a81548173ffffffffffffffffffffffffffffffffffffffff021916908373ffffffffffffffffffffffffffffffffffffffff16021790555050620002d3565b6200014e81604051602401620000c59190620001fe565b6040516020818303038152906040527f41304fac000000000000000000000000000000000000000000000000000000007bffffffffffffffffffffffffffffffffffffffffffffffffffffffff19166020820180517bffffffffffffffffffffffffffffffffffffffffffffffffffffffff83818316178352505050506200015160201b60201c565b50565b60008151905060006a636f6e736f6c652e6c6f679050602083016000808483855afa5050505050565b6000815190506200018b81620002b9565b92915050565b600060208284031215620001a457600080fd5b6000620001b4848285016200017a565b91505092915050565b6000620001ca8262000222565b620001d681856200022d565b9350620001e881856020860162000272565b620001f381620002a8565b840191505092915050565b600060208201905081810360008301526200021a8184620001bd565b905092915050565b600081519050919050565b600082825260208201905092915050565b60006200024b8262000252565b9050919050565b600073ffffffffffffffffffffffffffffffffffffffff82169050919050565b60005b838110156200029257808201518184015260208101905062000275565b83811115620002a2576000848401525b50505050565b6000601f19601f8301169050919050565b620002c4816200023e565b8114620002d057600080fd5b50565b612f6f80620002e36000396000f3fe60806040526004361061009c5760003560e01c80633810701f116100645780633810701f146101be5780636caa9218146101fc578063ada9373c14610227578063b30557a814610264578063db25b40714610280578063f5877a81146102ab5761009c565b8063133fdd85146100a1578063141961bc146100ca5780631957798514610111578063274add89146101585780632e1a7d4d14610195575b600080fd5b3480156100ad57600080fd5b506100c860048036038101906100c391906125f6565b6102d4565b005b3480156100d657600080fd5b506100f160048036038101906100ec91906125a4565b610703565b6040516101089b9a99989796959493929190612a69565b60405180910390f35b34801561011d57600080fd5b5061013860048036038101906101339190612514565b61093f565b60405161014f9b9a99989796959493929190612a69565b60405180910390f35b34801561016457600080fd5b5061017f600480360381019061017a91906124eb565b610b88565b60405161018c91906129ea565b60405180910390f35b3480156101a157600080fd5b506101bc60048036038101906101b791906125a4565b61103c565b005b3480156101ca57600080fd5b506101e560048036038101906101e091906126dd565b6111d3565b6040516101f3929190612b29565b60405180910390f35b34801561020857600080fd5b50610211611283565b60405161021e9190612a4e565b60405180910390f35b34801561023357600080fd5b5061024e600480360381019061024991906125a4565b61128f565b60405161025b9190612a0c565b60405180910390f35b61027e600480360381019061027991906126a1565b61136c565b005b34801561028c57600080fd5b5061029561157a565b6040516102a291906129ea565b60405180910390f35b3480156102b757600080fd5b506102d260048036038101906102cd9190612550565b611a33565b005b6102de6002611e4d565b7fc4af6f1ed788ce73084ccab24d407b2984bf4478db92b1c2ce0bda744aedd43d338560405161030f92919061298a565b60405180910390a16000841161035a576040517f08c379a000000000000000000000000000000000000000000000000000000000815260040161035190612a2e565b60405180910390fd5b60006040518061016001604052806103726002611e63565b8152602001600115158152602001600015158152602001858152602001848152602001868152602001600081526020014281526020013373ffffffffffffffffffffffffffffffffffffffff168152602001838152602001600081525090806001815401808255809150506001900390600052602060002090600a02016000909190919091506000820151816000015560208201518160010160006101000a81548160ff02191690831515021790555060408201518160010160016101000a81548160ff021916908315150217905550606082015181600201908051906020019061045e929190612318565b50608082015181600301908051906020019061047b929190612318565b5060a0820151816004015560c0820151816005015560e082015181600601556101008201518160070160006101000a81548173ffffffffffffffffffffffffffffffffffffffff021916908373ffffffffffffffffffffffffffffffffffffffff1602179055506101208201518160080190805190602001906104ff929190612318565b5061014082015181600901555050600360003373ffffffffffffffffffffffffffffffffffffffff1673ffffffffffffffffffffffffffffffffffffffff1681526020019081526020016000206040518061016001604052806105626002611e63565b8152602001600115158152602001600015158152602001858152602001848152602001868152602001600081526020014281526020013373ffffffffffffffffffffffffffffffffffffffff168152602001838152602001600081525090806001815401808255809150506001900390600052602060002090600a02016000909190919091506000820151816000015560208201518160010160006101000a81548160ff02191690831515021790555060408201518160010160016101000a81548160ff021916908315150217905550606082015181600201908051906020019061064e929190612318565b50608082015181600301908051906020019061066b929190612318565b5060a0820151816004015560c0820151816005015560e082015181600601556101008201518160070160006101000a81548173ffffffffffffffffffffffffffffffffffffffff021916908373ffffffffffffffffffffffffffffffffffffffff1602179055506101208201518160080190805190602001906106ef929190612318565b506101408201518160090155505050505050565b6000818154811061071357600080fd5b90600052602060002090600a02016000915090508060000154908060010160009054906101000a900460ff16908060010160019054906101000a900460ff169080600201805461076290612d5b565b80601f016020809104026020016040519081016040528092919081815260200182805461078e90612d5b565b80156107db5780601f106107b0576101008083540402835291602001916107db565b820191906000526020600020905b8154815290600101906020018083116107be57829003601f168201915b5050505050908060030180546107f090612d5b565b80601f016020809104026020016040519081016040528092919081815260200182805461081c90612d5b565b80156108695780601f1061083e57610100808354040283529160200191610869565b820191906000526020600020905b81548152906001019060200180831161084c57829003601f168201915b5050505050908060040154908060050154908060060154908060070160009054906101000a900473ffffffffffffffffffffffffffffffffffffffff16908060080180546108b690612d5b565b80601f01602080910402602001604051908101604052809291908181526020018280546108e290612d5b565b801561092f5780601f106109045761010080835404028352916020019161092f565b820191906000526020600020905b81548152906001019060200180831161091257829003601f168201915b505050505090806009015490508b565b6003602052816000526040600020818154811061095b57600080fd5b90600052602060002090600a0201600091509150508060000154908060010160009054906101000a900460ff16908060010160019054906101000a900460ff16908060020180546109ab90612d5b565b80601f01602080910402602001604051908101604052809291908181526020018280546109d790612d5b565b8015610a245780601f106109f957610100808354040283529160200191610a24565b820191906000526020600020905b815481529060010190602001808311610a0757829003601f168201915b505050505090806003018054610a3990612d5b565b80601f0160208091040260200160405190810160405280929190818152602001828054610a6590612d5b565b8015610ab25780601f10610a8757610100808354040283529160200191610ab2565b820191906000526020600020905b815481529060010190602001808311610a9557829003601f168201915b5050505050908060040154908060050154908060060154908060070160009054906101000a900473ffffffffffffffffffffffffffffffffffffffff1690806008018054610aff90612d5b565b80601f0160208091040260200160405190810160405280929190818152602001828054610b2b90612d5b565b8015610b785780601f10610b4d57610100808354040283529160200191610b78565b820191906000526020600020905b815481529060010190602001808311610b5b57829003601f168201915b505050505090806009015490508b565b60606000805b600360008573ffffffffffffffffffffffffffffffffffffffff1673ffffffffffffffffffffffffffffffffffffffff16815260200190815260200160002080549050811015610bf9578180610be390612dbe565b9250508080610bf190612dbe565b915050610b8e565b5060008167ffffffffffffffff811115610c3c577f4e487b7100000000000000000000000000000000000000000000000000000000600052604160045260246000fd5b604051908082528060200260200182016040528015610c7557816020015b610c6261239e565b815260200190600190039081610c5a5790505b5090506000805b600360008773ffffffffffffffffffffffffffffffffffffffff1673ffffffffffffffffffffffffffffffffffffffff1681526020019081526020016000208054905081101561103057600360008773ffffffffffffffffffffffffffffffffffffffff1673ffffffffffffffffffffffffffffffffffffffff1681526020019081526020016000208181548110610d3d577f4e487b7100000000000000000000000000000000000000000000000000000000600052603260045260246000fd5b90600052602060002090600a020160405180610160016040529081600082015481526020016001820160009054906101000a900460ff161515151581526020016001820160019054906101000a900460ff16151515158152602001600282018054610da790612d5b565b80601f0160208091040260200160405190810160405280929190818152602001828054610dd390612d5b565b8015610e205780601f10610df557610100808354040283529160200191610e20565b820191906000526020600020905b815481529060010190602001808311610e0357829003601f168201915b50505050508152602001600382018054610e3990612d5b565b80601f0160208091040260200160405190810160405280929190818152602001828054610e6590612d5b565b8015610eb25780601f10610e8757610100808354040283529160200191610eb2565b820191906000526020600020905b815481529060010190602001808311610e9557829003601f168201915b505050505081526020016004820154815260200160058201548152602001600682015481526020016007820160009054906101000a900473ffffffffffffffffffffffffffffffffffffffff1673ffffffffffffffffffffffffffffffffffffffff1673ffffffffffffffffffffffffffffffffffffffff168152602001600882018054610f3f90612d5b565b80601f0160208091040260200160405190810160405280929190818152602001828054610f6b90612d5b565b8015610fb85780601f10610f8d57610100808354040283529160200191610fb8565b820191906000526020600020905b815481529060010190602001808311610f9b57829003601f168201915b50505050508152602001600982015481525050838381518110611004577f4e487b7100000000000000000000000000000000000000000000000000000000600052603260045260246000fd5b6020026020010181905250818061101a90612dbe565b925050808061102890612dbe565b915050610c7c565b50819350505050919050565b6000600360003373ffffffffffffffffffffffffffffffffffffffff1673ffffffffffffffffffffffffffffffffffffffff16815260200190815260200160002082815481106110b5577f4e487b7100000000000000000000000000000000000000000000000000000000600052603260045260246000fd5b90600052602060002090600a02016009015414156110ff576040517fcdee0d5400000000000000000000000000000000000000000000000000000000815260040160405180910390fd5b6000600460003373ffffffffffffffffffffffffffffffffffffffff1673ffffffffffffffffffffffffffffffffffffffff1681526020019081526020016000205490506000600460003373ffffffffffffffffffffffffffffffffffffffff1673ffffffffffffffffffffffffffffffffffffffff168152602001908152602001600020819055503373ffffffffffffffffffffffffffffffffffffffff166108fc829081150290604051600060405180830381858888f193505050501580156111ce573d6000803e3d6000fd5b505050565b60008060008363ffffffff1681548110611216577f4e487b7100000000000000000000000000000000000000000000000000000000600052603260045260246000fd5b90600052602060002090600a02016004015460008463ffffffff1681548110611268577f4e487b7100000000000000000000000000000000000000000000000000000000600052603260045260246000fd5b90600052602060002090600a02016005015491509150915091565b60008080549050905090565b6060600082815481106112cb577f4e487b7100000000000000000000000000000000000000000000000000000000600052603260045260246000fd5b90600052602060002090600a020160080180546112e790612d5b565b80601f016020809104026020016040519081016040528092919081815260200182805461131390612d5b565b80156113605780601f1061133557610100808354040283529160200191611360565b820191906000526020600020905b81548152906001019060200180831161134357829003601f168201915b50505050509050919050565b81341461137857600080fd5b7f763749fda6e861139b3c51aa3e03c86b14c5d79da1b780fe580c42619a3f99303383836040516113ab939291906129b3565b60405180910390a16001151560008263ffffffff16815481106113f7577f4e487b7100000000000000000000000000000000000000000000000000000000600052603260045260246000fd5b90600052602060002090600a020160010160009054906101000a900460ff1615151461142257600080fd5b60008163ffffffff1681548110611462577f4e487b7100000000000000000000000000000000000000000000000000000000600052603260045260246000fd5b90600052602060002090600a0201600401548260008363ffffffff16815481106114b5577f4e487b7100000000000000000000000000000000000000000000000000000000600052603260045260246000fd5b90600052602060002090600a0201600501546114d19190612c37565b11156114dc57600080fd5b8160008263ffffffff168154811061151d577f4e487b7100000000000000000000000000000000000000000000000000000000600052603260045260246000fd5b90600052602060002090600a0201600501600082825461153d9190612c37565b92505081905550600080611550836111d3565b91509150600081836115629190612c8d565b141561157457611573836001611e71565b5b50505050565b60606000805b60008054905081101561160d57600081815481106115c7577f4e487b7100000000000000000000000000000000000000000000000000000000600052603260045260246000fd5b90600052602060002090600a020160010160009054906101000a900460ff16156115fa5781806115f690612dbe565b9250505b808061160590612dbe565b915050611580565b5060008167ffffffffffffffff811115611650577f4e487b7100000000000000000000000000000000000000000000000000000000600052604160045260246000fd5b60405190808252806020026020018201604052801561168957816020015b61167661239e565b81526020019060019003908161166e5790505b5090506000805b600080549050811015611a2957600081815481106116d7577f4e487b7100000000000000000000000000000000000000000000000000000000600052603260045260246000fd5b90600052602060002090600a020160010160009054906101000a900460ff1615611a165760008181548110611735577f4e487b7100000000000000000000000000000000000000000000000000000000600052603260045260246000fd5b90600052602060002090600a020160405180610160016040529081600082015481526020016001820160009054906101000a900460ff161515151581526020016001820160019054906101000a900460ff1615151515815260200160028201805461179f90612d5b565b80601f01602080910402602001604051908101604052809291908181526020018280546117cb90612d5b565b80156118185780601f106117ed57610100808354040283529160200191611818565b820191906000526020600020905b8154815290600101906020018083116117fb57829003601f168201915b5050505050815260200160038201805461183190612d5b565b80601f016020809104026020016040519081016040528092919081815260200182805461185d90612d5b565b80156118aa5780601f1061187f576101008083540402835291602001916118aa565b820191906000526020600020905b81548152906001019060200180831161188d57829003601f168201915b505050505081526020016004820154815260200160058201548152602001600682015481526020016007820160009054906101000a900473ffffffffffffffffffffffffffffffffffffffff1673ffffffffffffffffffffffffffffffffffffffff1673ffffffffffffffffffffffffffffffffffffffff16815260200160088201805461193790612d5b565b80601f016020809104026020016040519081016040528092919081815260200182805461196390612d5b565b80156119b05780601f10611985576101008083540402835291602001916119b0565b820191906000526020600020905b81548152906001019060200180831161199357829003601f168201915b505050505081526020016009820154815250508383815181106119fc577f4e487b7100000000000000000000000000000000000000000000000000000000600052603260045260246000fd5b60200260200101819052508180611a1290612dbe565b9250505b8080611a2190612dbe565b915050611690565b5081935050505090565b6000151560036000808463ffffffff1681548110611a7a577f4e487b7100000000000000000000000000000000000000000000000000000000600052603260045260246000fd5b90600052602060002090600a020160070160009054906101000a900473ffffffffffffffffffffffffffffffffffffffff1673ffffffffffffffffffffffffffffffffffffffff1673ffffffffffffffffffffffffffffffffffffffff1681526020019081526020016000208263ffffffff1681548110611b24577f4e487b7100000000000000000000000000000000000000000000000000000000600052603260045260246000fd5b90600052602060002090600a020160010160009054906101000a900460ff16151514611b4f57600080fd5b6001151560036000808463ffffffff1681548110611b96577f4e487b7100000000000000000000000000000000000000000000000000000000600052603260045260246000fd5b90600052602060002090600a020160070160009054906101000a900473ffffffffffffffffffffffffffffffffffffffff1673ffffffffffffffffffffffffffffffffffffffff1673ffffffffffffffffffffffffffffffffffffffff1681526020019081526020016000208263ffffffff1681548110611c40577f4e487b7100000000000000000000000000000000000000000000000000000000600052603260045260246000fd5b90600052602060002090600a020160010160019054906101000a900460ff16151514611c6b57600080fd5b6000600160009054906101000a900473ffffffffffffffffffffffffffffffffffffffff1673ffffffffffffffffffffffffffffffffffffffff166345576f94846040518263ffffffff1660e01b8152600401611cc89190612a0c565b602060405180830381600087803b158015611ce257600080fd5b505af1158015611cf6573d6000803e3d6000fd5b505050506040513d601f19601f82011682018060405250810190611d1a91906125cd565b905080600360003373ffffffffffffffffffffffffffffffffffffffff1673ffffffffffffffffffffffffffffffffffffffff1681526020019081526020016000208363ffffffff1681548110611d9a577f4e487b7100000000000000000000000000000000000000000000000000000000600052603260045260246000fd5b90600052602060002090600a020160090181905550505050565b611e4a81604051602401611dc89190612a0c565b6040516020818303038152906040527f41304fac000000000000000000000000000000000000000000000000000000007bffffffffffffffffffffffffffffffffffffffffffffffffffffffff19166020820180517bffffffffffffffffffffffffffffffffffffffffffffffffffffffff83818316178352505050506122ef565b50565b6001816000016000828254019250508190555050565b600081600001549050919050565b6000808363ffffffff1681548110611eb2577f4e487b7100000000000000000000000000000000000000000000000000000000600052603260045260246000fd5b90600052602060002090600a020160010160006101000a81548160ff0219169083151502179055508060008363ffffffff1681548110611f1b577f4e487b7100000000000000000000000000000000000000000000000000000000600052603260045260246000fd5b90600052602060002090600a020160010160016101000a81548160ff021916908315150217905550600060036000808563ffffffff1681548110611f88577f4e487b7100000000000000000000000000000000000000000000000000000000600052603260045260246000fd5b90600052602060002090600a020160070160009054906101000a900473ffffffffffffffffffffffffffffffffffffffff1673ffffffffffffffffffffffffffffffffffffffff1673ffffffffffffffffffffffffffffffffffffffff1681526020019081526020016000208363ffffffff1681548110612032577f4e487b7100000000000000000000000000000000000000000000000000000000600052603260045260246000fd5b90600052602060002090600a020160010160006101000a81548160ff0219169083151502179055508060036000808563ffffffff168154811061209e577f4e487b7100000000000000000000000000000000000000000000000000000000600052603260045260246000fd5b90600052602060002090600a020160070160009054906101000a900473ffffffffffffffffffffffffffffffffffffffff1673ffffffffffffffffffffffffffffffffffffffff1673ffffffffffffffffffffffffffffffffffffffff1681526020019081526020016000208363ffffffff1681548110612148577f4e487b7100000000000000000000000000000000000000000000000000000000600052603260045260246000fd5b90600052602060002090600a020160010160016101000a81548160ff02191690831515021790555060036000808463ffffffff16815481106121b3577f4e487b7100000000000000000000000000000000000000000000000000000000600052603260045260246000fd5b90600052602060002090600a020160070160009054906101000a900473ffffffffffffffffffffffffffffffffffffffff1673ffffffffffffffffffffffffffffffffffffffff1673ffffffffffffffffffffffffffffffffffffffff1681526020019081526020016000208263ffffffff168154811061225d577f4e487b7100000000000000000000000000000000000000000000000000000000600052603260045260246000fd5b90600052602060002090600a020160040154600460003373ffffffffffffffffffffffffffffffffffffffff1673ffffffffffffffffffffffffffffffffffffffff168152602001908152602001600020819055507f1cadeb3523ab78fe1ea2c68a09b9425e9e4a0d33ebc174ff92ad8536f86ac08682826040516122e3929190612b52565b60405180910390a15050565b60008151905060006a636f6e736f6c652e6c6f679050602083016000808483855afa5050505050565b82805461232490612d5b565b90600052602060002090601f016020900481019282612346576000855561238d565b82601f1061235f57805160ff191683800117855561238d565b8280016001018555821561238d579182015b8281111561238c578251825591602001919060010190612371565b5b50905061239a9190612412565b5090565b604051806101600160405280600081526020016000151581526020016000151581526020016060815260200160608152602001600081526020016000815260200160008152602001600073ffffffffffffffffffffffffffffffffffffffff16815260200160608152602001600081525090565b5b8082111561242b576000816000905550600101612413565b5090565b600061244261243d84612ba0565b612b7b565b90508281526020810184848401111561245a57600080fd5b612465848285612d19565b509392505050565b60008135905061247c81612ef4565b92915050565b600082601f83011261249357600080fd5b81356124a384826020860161242f565b91505092915050565b6000813590506124bb81612f0b565b92915050565b6000815190506124d081612f0b565b92915050565b6000813590506124e581612f22565b92915050565b6000602082840312156124fd57600080fd5b600061250b8482850161246d565b91505092915050565b6000806040838503121561252757600080fd5b60006125358582860161246d565b9250506020612546858286016124ac565b9150509250929050565b6000806040838503121561256357600080fd5b600083013567ffffffffffffffff81111561257d57600080fd5b61258985828601612482565b925050602061259a858286016124d6565b9150509250929050565b6000602082840312156125b657600080fd5b60006125c4848285016124ac565b91505092915050565b6000602082840312156125df57600080fd5b60006125ed848285016124c1565b91505092915050565b6000806000806080858703121561260c57600080fd5b600061261a878288016124ac565b945050602085013567ffffffffffffffff81111561263757600080fd5b61264387828801612482565b935050604085013567ffffffffffffffff81111561266057600080fd5b61266c87828801612482565b925050606085013567ffffffffffffffff81111561268957600080fd5b61269587828801612482565b91505092959194509250565b600080604083850312156126b457600080fd5b60006126c2858286016124ac565b92505060206126d3858286016124d6565b9150509250929050565b6000602082840312156126ef57600080fd5b60006126fd848285016124d6565b91505092915050565b60006127128383612860565b905092915050565b61272381612cc1565b82525050565b61273281612cc1565b82525050565b600061274382612be1565b61274d8185612c04565b93508360208202850161275f85612bd1565b8060005b8581101561279b578484038952815161277c8582612706565b945061278783612bf7565b925060208a01995050600181019050612763565b50829750879550505050505092915050565b6127b681612cd3565b82525050565b6127c581612cd3565b82525050565b60006127d682612bec565b6127e08185612c15565b93506127f0818560208601612d28565b6127f981612e94565b840191505092915050565b600061280f82612bec565b6128198185612c26565b9350612829818560208601612d28565b61283281612e94565b840191505092915050565b600061284a602983612c26565b915061285582612ea5565b604082019050919050565b600061016083016000830151612879600086018261295d565b50602083015161288c60208601826127ad565b50604083015161289f60408601826127ad565b50606083015184820360608601526128b782826127cb565b915050608083015184820360808601526128d182826127cb565b91505060a08301516128e660a086018261295d565b5060c08301516128f960c086018261295d565b5060e083015161290c60e086018261295d565b5061010083015161292161010086018261271a565b5061012083015184820361012086015261293b82826127cb565b91505061014083015161295261014086018261295d565b508091505092915050565b61296681612cff565b82525050565b61297581612cff565b82525050565b61298481612d09565b82525050565b600060408201905061299f6000830185612729565b6129ac602083018461296c565b9392505050565b60006060820190506129c86000830186612729565b6129d5602083018561296c565b6129e2604083018461297b565b949350505050565b60006020820190508181036000830152612a048184612738565b905092915050565b60006020820190508181036000830152612a268184612804565b905092915050565b60006020820190508181036000830152612a478161283d565b9050919050565b6000602082019050612a63600083018461296c565b92915050565b600061016082019050612a7f600083018e61296c565b612a8c602083018d6127bc565b612a99604083018c6127bc565b8181036060830152612aab818b612804565b90508181036080830152612abf818a612804565b9050612ace60a083018961296c565b612adb60c083018861296c565b612ae860e083018761296c565b612af6610100830186612729565b818103610120830152612b098185612804565b9050612b1961014083018461296c565b9c9b505050505050505050505050565b6000604082019050612b3e600083018561296c565b612b4b602083018461296c565b9392505050565b6000604082019050612b67600083018561297b565b612b7460208301846127bc565b9392505050565b6000612b85612b96565b9050612b918282612d8d565b919050565b6000604051905090565b600067ffffffffffffffff821115612bbb57612bba612e65565b5b612bc482612e94565b9050602081019050919050565b6000819050602082019050919050565b600081519050919050565b600081519050919050565b6000602082019050919050565b600082825260208201905092915050565b600082825260208201905092915050565b600082825260208201905092915050565b6000612c4282612cff565b9150612c4d83612cff565b9250827fffffffffffffffffffffffffffffffffffffffffffffffffffffffffffffffff03821115612c8257612c81612e07565b5b828201905092915050565b6000612c9882612cff565b9150612ca383612cff565b925082821015612cb657612cb5612e07565b5b828203905092915050565b6000612ccc82612cdf565b9050919050565b60008115159050919050565b600073ffffffffffffffffffffffffffffffffffffffff82169050919050565b6000819050919050565b600063ffffffff82169050919050565b82818337600083830152505050565b60005b83811015612d46578082015181840152602081019050612d2b565b83811115612d55576000848401525b50505050565b60006002820490506001821680612d7357607f821691505b60208210811415612d8757612d86612e36565b5b50919050565b612d9682612e94565b810181811067ffffffffffffffff82111715612db557612db4612e65565b5b80604052505050565b6000612dc982612cff565b91507fffffffffffffffffffffffffffffffffffffffffffffffffffffffffffffffff821415612dfc57612dfb612e07565b5b600182019050919050565b7f4e487b7100000000000000000000000000000000000000000000000000000000600052601160045260246000fd5b7f4e487b7100000000000000000000000000000000000000000000000000000000600052602260045260246000fd5b7f4e487b7100000000000000000000000000000000000000000000000000000000600052604160045260246000fd5b6000601f19601f8301169050919050565b7f43616d706169676e20676f616c206d757374206265206772656174657220746860008201527f616e2030205765692e0000000000000000000000000000000000000000000000602082015250565b612efd81612cc1565b8114612f0857600080fd5b50565b612f1481612cff565b8114612f1f57600080fd5b50565b612f2b81612d09565b8114612f3657600080fd5b5056fea264697066735822122012cdfe23f456f89e2bf0ed90698c375203665304ab6fa1731a32cbb8208d857f64736f6c634300080400334465706c6f79696e6720636f6e74726163742043616d706169676e48616e646c6572",
  "linkReferences": {},
  "deployedLinkReferences": {}
}